{
  "contractName": "Faucet",
  "abi": [
    {
      "inputs": [],
      "name": "addFunds",
      "outputs": [],
      "stateMutability": "payable",
      "type": "function",
      "payable": true
    },
    {
      "inputs": [
        {
          "internalType": "uint256",
          "name": "withdrawAmount",
          "type": "uint256"
        }
      ],
      "name": "withdraw",
      "outputs": [],
      "stateMutability": "nonpayable",
      "type": "function"
    }
  ],
  "bytecode": "0x608060405234801561001057600080fd5b5061014b806100206000396000f3fe6080604052600436106100295760003560e01c80632e1a7d4d1461002e578063a26759cb14610057575b600080fd5b34801561003a57600080fd5b50610055600480360381019061005091906100e8565b610061565b005b61005f6100ab565b005b3373ffffffffffffffffffffffffffffffffffffffff166108fc829081150290604051600060405180830381858888f193505050501580156100a7573d6000803e3d6000fd5b5050565b565b600080fd5b6000819050919050565b6100c5816100b2565b81146100d057600080fd5b50565b6000813590506100e2816100bc565b92915050565b6000602082840312156100fe576100fd6100ad565b5b600061010c848285016100d3565b9150509291505056fea2646970667358221220ac9aef910a06cde94ec4fe5b3db346df54e2b05423f31ec3295fb3f1212cf4f964736f6c63430008100033",
  "immutableReferences": {},
  "source": "// SPDX-License-Identifier: MIT\npragma solidity >=0.7.0 <0.9.0;\n\ncontract Faucet {\n  modifier limitWithdraw(uint256 withdrawAmount) {\n    require(\n      withdrawAmount <= 100000000000000000,\n      \"Cannot withdraw less than 0.1 eth\"\n    );\n    _;\n  }\n\n  function addFunds() external payable {}\n\n  function withdraw(uint256 withdrawAmount) external {\n    payable(msg.sender).transfer(withdrawAmount);\n  }\n}\n",
  "sourcePath": "/home/mauricio/Documentos/blockchain/faucet/contracts/Faucet.sol",
  "compiler": {
    "name": "solc",
    "version": "0.8.16+commit.07a7930e.Emscripten.clang"
  },
  "schemaVersion": "3.4.9",
  "updatedAt": "2022-09-14T22:50:42.941Z",
  "networkType": "ethereum",
  "devdoc": {
    "kind": "dev",
    "methods": {},
    "version": 1
  },
  "userdoc": {
    "kind": "user",
    "methods": {},
    "version": 1
  }
}